:020000020000FC
:0800000004E00EBF0FE50DBF87
:102222000C946B1160008800A80090004000280008
:10223200D000080020007800B0004800E000A000B4
:10224200F0006800D80050001000C00030001800F4
:1022520070009800B800C8004441544F5254454B96
:102262004E494B00EAE5F2E201E00ABB08952591EE
:1022720020300895FF93EF93E6E2F2E22154E20F59
:102282000024F01D2491EF91FF910895220F0895EB
:102292000E94471118F038EC0C94531138EC48ECBA
:1022A200440F340F0E945D110E945E110E9447117B
:1022B20011F40C944B110895089538EC0E945D11AD
:1022C20008950E943B110E94491138EC330F0E947D
:1022D2005E1108950E9433110E94381129F00E9464
:0A22E20062110E943811D9F7089527
:00000001FF
