:020000020000FC
:0800000004E00EBF0FE50DBF87
:10007E000C9475000895C79A1FE11A95F1F70A9529
:10008E00D9F7C798089500E00ABB0FE807BB08959B
:10009E00C89B0C944F0004E106950E944100C89B3A
:1000AE000C944F00089524E0332704E10E94410090
:1000BE00C89938602A9519F036950C945C0008950D
:1000CE0024E0332704E10E9441003695C899386038
:1000DE002A95C1F708953F7038BB08950E944A00D3
:1000EE000E944F000E9467000E94720004E10E946D
:0600FE0041000C947700A4
:00000001FF
